:1000000012C02AC029C028C027C026C09FC024C053
:1000100023C022C021C020C01FC01EC01DC01CC0E4
:100020001BC01AC019C011241FBECFEDCDBF10E0F8
:10003000A0E6B0E0E6EDF7E002C005900D92A43630
:10004000B107D9F710E0A4E6B0E001C01D92A538D1
:10005000B107E1F777D1BDC3D3CF2091730022233D
:1000600071F586992CC080917C00815080937C0032
:100070008F3F11F410927C0080917C008823F9F46A
:1000800084E080937C0080917D00882329F4809116
:1000900060008F5F8093600090916500943018F04D
:1000A0008FEF80936000992319F481E080936000C2
:1000B00080916000882319F481E080936000859925
:1000C0002AC0809166008F5F809366008C3329F58B
:1000D00010927300222319F481E08093730086E06C
:1000E00080937E0080937F0082E080936B0083E0AA
:1000F00080936C00E0E8F0E0ADE6B0E089E0819349
:100100008D9390E0E538F907D1F782E080936400A1
:100110008093610002C010926600839903C083E05F
:1001200080936400849903C084E08093640086997E
:1001300003C081E080936400859903C082E08093CE
:10014000640080EC9AED0197F1F708951F920F92E9
:100150000FB60F9211248F93EF93FF93E0917400E9
:10016000F0E0EB58FF4F8081809588BB8091740050
:10017000886F82BB809174008F5F80937400809140
:100180007400873010F010927400FF91EF918F91FE
:100190000F900FBE0F901F9018950F931F93CF9342
:1001A000DF938091610040E050E0682F70E0655976
:1001B0007F4F01E010E0342FFA01EB58FF4F10821F
:1001C000ABE6B0E0CEE7D0E00FC08C91831751F4DE
:1001D0002081C801088002C0880F991F0A94E2F7A5
:1001E000282B208311962196A617B70771F74F5F2A
:1001F0005F4F47305105F9F6E0916300F0E0EB58AE
:10020000FF4F208181E090E00090620002C0880FE3
:10021000991F0A94E2F7282B2083DF91CF911F9139
:100220000F91089580916100843029F1853028F480
:10023000823089F18330B9F526C0863061F086308E
:1002400090F0873081F580918300809384008091C5
:100250007000809371008091820080938300809170
:100260006F00809370008091810080938200809164
:100270006E0080936F008091800080938100809158
:100280006D0080936E0080917F008093800080914C
:100290006C0080936D0080917E0080937F00809140
:1002A0006B0080936C00089580917200982F977076
:1002B000909362008E5F90916A00891B8770809393
:1002C0006300873019F486E0809363000895ECD1D1
:1002D00082EA18D283E016D2809169008295807FED
:1002E00090916A00892B0ED2809167008295807F61
:1002F00090916800892B06D2EFD108950F931F9338
:10030000D3D182EAFFD183E0FDD1CED183EAFAD105
:1003100081E01ED2082F80E01BD2182FDDD1812F63
:1003200082958370809367001F7010936800802F00
:1003300082958770809369000F7000936A001F9107
:100340000F9108952F923F924F925F926F927F92FA
:100350008F929F92AF92BF92CF92DF92EF92FF92D5
:100360000F931F93CF93DF93D898D19A789489B73E
:10037000826089BF83E083BF8FEF87BB87E081BB4B
:10038000BDDF40E8442E512C30E2232E312C8091E9
:100390007300882309F0FFC0109264005EDE5DDE0A
:1003A0005CDE5BDED090650080916000D81609F4B9
:1003B0006DC020E030E0F901EB58FF4F8081880FDD
:1003C00080832F5F3F4F27303105A9F723E02D159C
:1003D00008F451C0F0907D0034E03F1548F1ED2D58
:1003E000F0E0E959FF4F808190E065E070E0D7D1FF
:1003F0008C010F0D111D00501040C0E0D0E0C8016D
:10040000E0D190E00C2E02C0959587950A94E2F712
:1004100080FF06C0FE01EB58FF4F80818160808322
:100420002196C730D10559F7F394F0927D00AFCFF4
:100430008F2D8F5F80937D0091E0D916B1F48730C6
:1004400059F48091770081608093770080917A00E1
:10045000816080937A009BCF883009F098CF10920A
:100460007D0022E02093650092CF10927D00D3940E
:10047000D09265008CCF8D2D8F5F809365008D307D
:1004800008F485CF1092650039DF81CFC0906400F9
:1004900033E0C31659F4ED2DF0E0EA59FF4F8081A7
:1004A0008F5F80838A3081F410820EC084E0C8168A
:1004B00059F4ED2DF0E0EA59FF4F8081815080839F
:1004C0008F3F11F499E09083ED2DF0E0EA59FF4F52
:1004D000808190E065E070E062D120E0E22E20E0D3
:1004E000F22EE80EF91E00E010E02FC0C30169D122
:1004F00090E00C2E02C0959587950A94E2F780FF54
:100500000CC0FE01EB58FF4F22E0D21619F4808197
:100510008A290EC080818B290BC0FE01EB58FF4F4A
:1005200032E0D31619F48081882102C080818921AC
:1005300080832196C730D105C9F60F5F1F4F0894FD
:10054000E11CF11C05301105C1F037019201002EAC
:1005500002C0359527950A94E2F7A22E9101002E4C
:1005600002C0359527950A94E2F7B22E8A2C809422
:10057000922E9094C0E0D0E0B9CFCC2051F08AEC1C
:1005800098E0E8ECF0E03197F1F70197D1F710929D
:1005900064009DDEFCCE14E160DD1150E9F780912E
:1005A000640040917E0030917F0020916B0090911B
:1005B0006C00823019F419C081E00CC0833018F44B
:1005C000813029F407C08330D9F0843021F1809341
:1005D00064002DC0431710F482E007C080936400CC
:1005E00021DE80917E008F5F08C0341728F380934E
:1005F000640018DE80917E00815080937E0017C0D9
:10060000921710F484E007C0809364000BDE8091A1
:100610006B0081500AC0291710F483E0F1CF80935A
:10062000640000DE80916B008F5F80936B003091DF
:100630007E003F3F41F0383031F080916B008F3FBA
:1006400011F0873011F410927300209161005091E5
:100650006B0040917300AFE7B0E0ECE6F0E091E0B2
:100660000AC08C91381721F48081581709F440E0B2
:100670009F5F119631969217A0F34093730080917B
:100680006200381751F480916300581731F4273015
:1006900018F42F5F2093610007DE809172008F5F56
:1006A000809372007ADD73CED898D09881E090E084
:1006B000A0E0B0E08A95F1F7D99A81E090E0A0E05F
:1006C000B0E08A95F1F7D09A81E090E0A0E0B0E048
:1006D0008A95F1F7D9980895D09A81E090E0A0E04A
:1006E000B0E08A95F1F7D99A81E090E0A0E0B0E01F
:1006F0008A95F1F7D09881E090E0A0E0B0E08A958B
:10070000F1F7089598E021E030E040E050E087FF05
:1007100002C0D09801C0D09A2A95F1F7D99A2A95AB
:10072000F1F7D998915011F0880FF1CFD09881E06E
:1007300090E0A0E0B0E08A95F1F7D99A81E090E0EE
:10074000A0E0B0E08A95F1F789B3D9988170089557
:10075000D09898E060E021E030E040E050E02A9559
:10076000F1F7D99A2A95F1F7660FC8996F5FD99872
:100770009150A9F7813011F4D09A01C0D09881E04E
:1007800090E0A0E0B0E08A95F1F7D99A81E090E09E
:10079000A0E0B0E08A95F1F7D998862F0895552703
:1007A000002480FF02C0060E571F660F771F6115D9
:1007B000710521F096958795009799F7952F802DD3
:1007C0000895E199FECF1FBA8EBBE09A99278DB3A9
:0607D0000895F894FFCF2C
:0407D600FF02050217
:00000001FF
